{
	"data": {
		"bytecode": {
			"linkReferences": {},
			"object": "608060405234801561000f575f80fd5b506040516103e03803806103e083398181016040528101906100319190610075565b80600181905550506100a0565b5f80fd5b5f819050919050565b61005481610042565b811461005e575f80fd5b50565b5f8151905061006f8161004b565b92915050565b5f6020828403121561008a5761008961003e565b5b5f61009784828501610061565b91505092915050565b610333806100ad5f395ff3fe608060405234801561000f575f80fd5b506004361061004a575f3560e01c8063291a92431461004e5780632fdbbb9b1461006a578063844867631461008857806391f5de38146100a6575b5f80fd5b61006860048036038101906100639190610185565b6100c4565b005b6100726100cd565b60405161007f919061023a565b60405180910390f35b610090610143565b60405161009d9190610269565b60405180910390f35b6100ae610149565b6040516100bb9190610269565b60405180910390f35b805f8190555050565b60606001545f5411156100fa57604051806060016040528060228152602001610283602291399050610140565b6001545f5403610124576040518060600160405280603481526020016102a5603491399050610140565b6040518060600160405280602581526020016102d96025913990505b90565b60015481565b5f5481565b5f80fd5b5f819050919050565b61016481610152565b811461016e575f80fd5b50565b5f8135905061017f8161015b565b92915050565b5f6020828403121561019a5761019961014e565b5b5f6101a784828501610171565b91505092915050565b5f81519050919050565b5f82825260208201905092915050565b5f5b838110156101e75780820151818401526020810190506101cc565b5f8484015250505050565b5f601f19601f8301169050919050565b5f61020c826101b0565b61021681856101ba565b93506102268185602086016101ca565b61022f816101f2565b840191505092915050565b5f6020820190508181035f8301526102528184610202565b905092915050565b61026381610152565b82525050565b5f60208201905061027c5f83018461025a565b9291505056fe50756564657320696e6772657361722065726573206d61796f7220646520656461644163616261732064652063756d706c6972206c61206d61796f72696120646520656461642070756564657320696e67726573617245726573206d656e6f722064652065646164206e6f2070756564657320696e677265736172a2646970667358221220d289d51fc592ba835d02d70277a077f2bec4d8f7ab8f0284f5165d394487bee164736f6c63430008180033",
			"opcodes": "PUSH1 0x80 PUSH1 0x40 MSTORE CALLVALUE DUP1 ISZERO PUSH2 0xF JUMPI PUSH0 DUP1 REVERT JUMPDEST POP PUSH1 0x40 MLOAD PUSH2 0x3E0 CODESIZE SUB DUP1 PUSH2 0x3E0 DUP4 CODECOPY DUP2 DUP2 ADD PUSH1 0x40 MSTORE DUP2 ADD SWAP1 PUSH2 0x31 SWAP2 SWAP1 PUSH2 0x75 JUMP JUMPDEST DUP1 PUSH1 0x1 DUP2 SWAP1 SSTORE POP POP PUSH2 0xA0 JUMP JUMPDEST PUSH0 DUP1 REVERT JUMPDEST PUSH0 DUP2 SWAP1 POP SWAP2 SWAP1 POP JUMP JUMPDEST PUSH2 0x54 DUP2 PUSH2 0x42 JUMP JUMPDEST DUP2 EQ PUSH2 0x5E JUMPI PUSH0 DUP1 REVERT JUMPDEST POP JUMP JUMPDEST PUSH0 DUP2 MLOAD SWAP1 POP PUSH2 0x6F DUP2 PUSH2 0x4B JUMP JUMPDEST SWAP3 SWAP2 POP POP JUMP JUMPDEST PUSH0 PUSH1 0x20 DUP3 DUP5 SUB SLT ISZERO PUSH2 0x8A JUMPI PUSH2 0x89 PUSH2 0x3E JUMP JUMPDEST JUMPDEST PUSH0 PUSH2 0x97 DUP5 DUP3 DUP6 ADD PUSH2 0x61 JUMP JUMPDEST SWAP2 POP POP SWAP3 SWAP2 POP POP JUMP JUMPDEST PUSH2 0x333 DUP1 PUSH2 0xAD PUSH0 CODECOPY PUSH0 RETURN INVALID PUSH1 0x80 PUSH1 0x40 MSTORE CALLVALUE DUP1 ISZERO PUSH2 0xF JUMPI PUSH0 DUP1 REVERT JUMPDEST POP PUSH1 0x4 CALLDATASIZE LT PUSH2 0x4A JUMPI PUSH0 CALLDATALOAD PUSH1 0xE0 SHR DUP1 PUSH4 0x291A9243 EQ PUSH2 0x4E JUMPI DUP1 PUSH4 0x2FDBBB9B EQ PUSH2 0x6A JUMPI DUP1 PUSH4 0x84486763 EQ PUSH2 0x88 JUMPI DUP1 PUSH4 0x91F5DE38 EQ PUSH2 0xA6 JUMPI JUMPDEST PUSH0 DUP1 REVERT JUMPDEST PUSH2 0x68 PUSH1 0x4 DUP1 CALLDATASIZE SUB DUP2 ADD SWAP1 PUSH2 0x63 SWAP2 SWAP1 PUSH2 0x185 JUMP JUMPDEST PUSH2 0xC4 JUMP JUMPDEST STOP JUMPDEST PUSH2 0x72 PUSH2 0xCD JUMP JUMPDEST PUSH1 0x40 MLOAD PUSH2 0x7F SWAP2 SWAP1 PUSH2 0x23A JUMP JUMPDEST PUSH1 0x40 MLOAD DUP1 SWAP2 SUB SWAP1 RETURN JUMPDEST PUSH2 0x90 PUSH2 0x143 JUMP JUMPDEST PUSH1 0x40 MLOAD PUSH2 0x9D SWAP2 SWAP1 PUSH2 0x269 JUMP JUMPDEST PUSH1 0x40 MLOAD DUP1 SWAP2 SUB SWAP1 RETURN JUMPDEST PUSH2 0xAE PUSH2 0x149 JUMP JUMPDEST PUSH1 0x40 MLOAD PUSH2 0xBB SWAP2 SWAP1 PUSH2 0x269 JUMP JUMPDEST PUSH1 0x40 MLOAD DUP1 SWAP2 SUB SWAP1 RETURN JUMPDEST DUP1 PUSH0 DUP2 SWAP1 SSTORE POP POP JUMP JUMPDEST PUSH1 0x60 PUSH1 0x1 SLOAD PUSH0 SLOAD GT ISZERO PUSH2 0xFA JUMPI PUSH1 0x40 MLOAD DUP1 PUSH1 0x60 ADD PUSH1 0x40 MSTORE DUP1 PUSH1 0x22 DUP2 MSTORE PUSH1 0x20 ADD PUSH2 0x283 PUSH1 0x22 SWAP2 CODECOPY SWAP1 POP PUSH2 0x140 JUMP JUMPDEST PUSH1 0x1 SLOAD PUSH0 SLOAD SUB PUSH2 0x124 JUMPI PUSH1 0x40 MLOAD DUP1 PUSH1 0x60 ADD PUSH1 0x40 MSTORE DUP1 PUSH1 0x34 DUP2 MSTORE PUSH1 0x20 ADD PUSH2 0x2A5 PUSH1 0x34 SWAP2 CODECOPY SWAP1 POP PUSH2 0x140 JUMP JUMPDEST PUSH1 0x40 MLOAD DUP1 PUSH1 0x60 ADD PUSH1 0x40 MSTORE DUP1 PUSH1 0x25 DUP2 MSTORE PUSH1 0x20 ADD PUSH2 0x2D9 PUSH1 0x25 SWAP2 CODECOPY SWAP1 POP JUMPDEST SWAP1 JUMP JUMPDEST PUSH1 0x1 SLOAD DUP2 JUMP JUMPDEST PUSH0 SLOAD DUP2 JUMP JUMPDEST PUSH0 DUP1 REVERT JUMPDEST PUSH0 DUP2 SWAP1 POP SWAP2 SWAP1 POP JUMP JUMPDEST PUSH2 0x164 DUP2 PUSH2 0x152 JUMP JUMPDEST DUP2 EQ PUSH2 0x16E JUMPI PUSH0 DUP1 REVERT JUMPDEST POP JUMP JUMPDEST PUSH0 DUP2 CALLDATALOAD SWAP1 POP PUSH2 0x17F DUP2 PUSH2 0x15B JUMP JUMPDEST SWAP3 SWAP2 POP POP JUMP JUMPDEST PUSH0 PUSH1 0x20 DUP3 DUP5 SUB SLT ISZERO PUSH2 0x19A JUMPI PUSH2 0x199 PUSH2 0x14E JUMP JUMPDEST JUMPDEST PUSH0 PUSH2 0x1A7 DUP5 DUP3 DUP6 ADD PUSH2 0x171 JUMP JUMPDEST SWAP2 POP POP SWAP3 SWAP2 POP POP JUMP JUMPDEST PUSH0 DUP2 MLOAD SWAP1 POP SWAP2 SWAP1 POP JUMP JUMPDEST PUSH0 DUP3 DUP3 MSTORE PUSH1 0x20 DUP3 ADD SWAP1 POP SWAP3 SWAP2 POP POP JUMP JUMPDEST PUSH0 JUMPDEST DUP4 DUP2 LT ISZERO PUSH2 0x1E7 JUMPI DUP1 DUP3 ADD MLOAD DUP2 DUP5 ADD MSTORE PUSH1 0x20 DUP2 ADD SWAP1 POP PUSH2 0x1CC JUMP JUMPDEST PUSH0 DUP5 DUP5 ADD MSTORE POP POP POP POP JUMP JUMPDEST PUSH0 PUSH1 0x1F NOT PUSH1 0x1F DUP4 ADD AND SWAP1 POP SWAP2 SWAP1 POP JUMP JUMPDEST PUSH0 PUSH2 0x20C DUP3 PUSH2 0x1B0 JUMP JUMPDEST PUSH2 0x216 DUP2 DUP6 PUSH2 0x1BA JUMP JUMPDEST SWAP4 POP PUSH2 0x226 DUP2 DUP6 PUSH1 0x20 DUP7 ADD PUSH2 0x1CA JUMP JUMPDEST PUSH2 0x22F DUP2 PUSH2 0x1F2 JUMP JUMPDEST DUP5 ADD SWAP2 POP POP SWAP3 SWAP2 POP POP JUMP JUMPDEST PUSH0 PUSH1 0x20 DUP3 ADD SWAP1 POP DUP2 DUP2 SUB PUSH0 DUP4 ADD MSTORE PUSH2 0x252 DUP2 DUP5 PUSH2 0x202 JUMP JUMPDEST SWAP1 POP SWAP3 SWAP2 POP POP JUMP JUMPDEST PUSH2 0x263 DUP2 PUSH2 0x152 JUMP JUMPDEST DUP3 MSTORE POP POP JUMP JUMPDEST PUSH0 PUSH1 0x20 DUP3 ADD SWAP1 POP PUSH2 0x27C PUSH0 DUP4 ADD DUP5 PUSH2 0x25A JUMP JUMPDEST SWAP3 SWAP2 POP POP JUMP INVALID POP PUSH22 0x6564657320696E6772657361722065726573206D6179 PUSH16 0x72206465206564616441636162617320 PUSH5 0x652063756D PUSH17 0x6C6972206C61206D61796F726961206465 KECCAK256 PUSH6 0x646164207075 PUSH6 0x64657320696E PUSH8 0x7265736172457265 PUSH20 0x206D656E6F722064652065646164206E6F207075 PUSH6 0x64657320696E PUSH8 0x7265736172A26469 PUSH17 0x667358221220D289D51FC592BA835D02D7 MUL PUSH24 0xA077F2BEC4D8F7AB8F0284F5165D394487BEE164736F6C63 NUMBER STOP ADDMOD XOR STOP CALLER "
		},
		"gasEstimates": {
			"creation": {
				"codeDepositCost": "163800",
				"executionCost": "infinite",
				"totalCost": "infinite"
			},
			"external": {
				"edad_limit()": "2447",
				"establecernumero(uint256)": "22492",
				"mensaje()": "infinite",
				"numero()": "2468"
			}
		},
		"methodIdentifiers": {
			"edad_limit()": "84486763",
			"establecernumero(uint256)": "291a9243",
			"mensaje()": "2fdbbb9b",
			"numero()": "91f5de38"
		}
	},
	"abi": [
		{
			"inputs": [
				{
					"internalType": "uint256",
					"name": "_edad_limit",
					"type": "uint256"
				}
			],
			"stateMutability": "nonpayable",
			"type": "constructor"
		},
		{
			"inputs": [],
			"name": "edad_limit",
			"outputs": [
				{
					"internalType": "uint256",
					"name": "",
					"type": "uint256"
				}
			],
			"stateMutability": "view",
			"type": "function"
		},
		{
			"inputs": [
				{
					"internalType": "uint256",
					"name": "_numero",
					"type": "uint256"
				}
			],
			"name": "establecernumero",
			"outputs": [],
			"stateMutability": "nonpayable",
			"type": "function"
		},
		{
			"inputs": [],
			"name": "mensaje",
			"outputs": [
				{
					"internalType": "string",
					"name": "",
					"type": "string"
				}
			],
			"stateMutability": "view",
			"type": "function"
		},
		{
			"inputs": [],
			"name": "numero",
			"outputs": [
				{
					"internalType": "uint256",
					"name": "",
					"type": "uint256"
				}
			],
			"stateMutability": "view",
			"type": "function"
		}
	]
}